{
  "contractName": "freelancer",
  "abi": [
    {
      "inputs": [],
      "stateMutability": "nonpayable",
      "type": "constructor"
    },
    {
      "anonymous": false,
      "inputs": [
        {
          "indexed": false,
          "internalType": "int256",
          "name": "scheduleID",
          "type": "int256"
        },
        {
          "indexed": false,
          "internalType": "uint256",
          "name": "valueReleased",
          "type": "uint256"
        }
      ],
      "name": "fundsReleased",
      "type": "event"
    },
    {
      "anonymous": false,
      "inputs": [
        {
          "indexed": false,
          "internalType": "address",
          "name": "clientAddress",
          "type": "address"
        }
      ],
      "name": "projectAccepted",
      "type": "event"
    },
    {
      "anonymous": false,
      "inputs": [],
      "name": "projectEnded",
      "type": "event"
    },
    {
      "anonymous": false,
      "inputs": [
        {
          "indexed": false,
          "internalType": "string",
          "name": "shortCode",
          "type": "string"
        }
      ],
      "name": "scheduleAdded",
      "type": "event"
    },
    {
      "anonymous": false,
      "inputs": [
        {
          "indexed": false,
          "internalType": "int256",
          "name": "scheduleID",
          "type": "int256"
        }
      ],
      "name": "taskApproved",
      "type": "event"
    },
    {
      "anonymous": false,
      "inputs": [
        {
          "indexed": false,
          "internalType": "int256",
          "name": "scheduleID",
          "type": "int256"
        }
      ],
      "name": "taskFunded",
      "type": "event"
    },
    {
      "anonymous": false,
      "inputs": [
        {
          "indexed": false,
          "internalType": "int256",
          "name": "scheduleID",
          "type": "int256"
        }
      ],
      "name": "taskStarted",
      "type": "event"
    },
    {
      "inputs": [],
      "name": "clientAddress",
      "outputs": [
        {
          "internalType": "address",
          "name": "",
          "type": "address"
        }
      ],
      "stateMutability": "view",
      "type": "function",
      "constant": true
    },
    {
      "inputs": [],
      "name": "endDate",
      "outputs": [
        {
          "internalType": "uint256",
          "name": "",
          "type": "uint256"
        }
      ],
      "stateMutability": "view",
      "type": "function",
      "constant": true
    },
    {
      "inputs": [],
      "name": "freelancerAddress",
      "outputs": [
        {
          "internalType": "address payable",
          "name": "",
          "type": "address"
        }
      ],
      "stateMutability": "view",
      "type": "function",
      "constant": true
    },
    {
      "inputs": [],
      "name": "projectState",
      "outputs": [
        {
          "internalType": "enum freelancer.ProjectState",
          "name": "",
          "type": "uint8"
        }
      ],
      "stateMutability": "view",
      "type": "function",
      "constant": true
    },
    {
      "inputs": [
        {
          "internalType": "int256",
          "name": "",
          "type": "int256"
        }
      ],
      "name": "scheduleRegister",
      "outputs": [
        {
          "internalType": "string",
          "name": "shortCode",
          "type": "string"
        },
        {
          "internalType": "string",
          "name": "description",
          "type": "string"
        },
        {
          "internalType": "uint256",
          "name": "value",
          "type": "uint256"
        },
        {
          "internalType": "uint256",
          "name": "startDate",
          "type": "uint256"
        },
        {
          "internalType": "uint256",
          "name": "endDate",
          "type": "uint256"
        },
        {
          "internalType": "enum freelancer.ScheduleState",
          "name": "scheduleState",
          "type": "uint8"
        }
      ],
      "stateMutability": "view",
      "type": "function",
      "constant": true
    },
    {
      "inputs": [],
      "name": "startDate",
      "outputs": [
        {
          "internalType": "uint256",
          "name": "",
          "type": "uint256"
        }
      ],
      "stateMutability": "view",
      "type": "function",
      "constant": true
    },
    {
      "inputs": [],
      "name": "totalSchedules",
      "outputs": [
        {
          "internalType": "int256",
          "name": "",
          "type": "int256"
        }
      ],
      "stateMutability": "view",
      "type": "function",
      "constant": true
    },
    {
      "inputs": [
        {
          "internalType": "string",
          "name": "_shortCode",
          "type": "string"
        },
        {
          "internalType": "string",
          "name": "_description",
          "type": "string"
        },
        {
          "internalType": "uint256",
          "name": "_value",
          "type": "uint256"
        }
      ],
      "name": "addSchedule",
      "outputs": [],
      "stateMutability": "nonpayable",
      "type": "function"
    },
    {
      "inputs": [
        {
          "internalType": "uint256",
          "name": "_startDate",
          "type": "uint256"
        }
      ],
      "name": "acceptProject",
      "outputs": [],
      "stateMutability": "nonpayable",
      "type": "function"
    },
    {
      "inputs": [
        {
          "internalType": "int256",
          "name": "_scheduleID",
          "type": "int256"
        }
      ],
      "name": "fundTask",
      "outputs": [],
      "stateMutability": "payable",
      "type": "function",
      "payable": true
    },
    {
      "inputs": [
        {
          "internalType": "int256",
          "name": "_scheduleID",
          "type": "int256"
        },
        {
          "internalType": "uint256",
          "name": "_startDate",
          "type": "uint256"
        }
      ],
      "name": "startTask",
      "outputs": [],
      "stateMutability": "nonpayable",
      "type": "function"
    },
    {
      "inputs": [
        {
          "internalType": "int256",
          "name": "_scheduleID",
          "type": "int256"
        },
        {
          "internalType": "uint256",
          "name": "_endDate",
          "type": "uint256"
        }
      ],
      "name": "approveTask",
      "outputs": [],
      "stateMutability": "nonpayable",
      "type": "function"
    },
    {
      "inputs": [
        {
          "internalType": "int256",
          "name": "_scheduleID",
          "type": "int256"
        }
      ],
      "name": "releaseFunds",
      "outputs": [],
      "stateMutability": "payable",
      "type": "function",
      "payable": true
    },
    {
      "inputs": [
        {
          "internalType": "uint256",
          "name": "_endDate",
          "type": "uint256"
        }
      ],
      "name": "endProject",
      "outputs": [],
      "stateMutability": "nonpayable",
      "type": "function"
    },
    {
      "inputs": [],
      "name": "getBalance",
      "outputs": [
        {
          "internalType": "uint256",
          "name": "balance",
          "type": "uint256"
        }
      ],
      "stateMutability": "view",
      "type": "function",
      "constant": true
    }
  ],
  "bytecode": "0x60806040526000805534801561001457600080fd5b5033600160006101000a81548173ffffffffffffffffffffffffffffffffffffffff021916908373ffffffffffffffffffffffffffffffffffffffff1602179055506000600260146101000a81548160ff021916908360028111156100a2577f4e487b7100000000000000000000000000000000000000000000000000000000600052602160045260246000fd5b0217905550611ce7806100b66000396000f3fe6080604052600436106100e85760003560e01c8063748807ab1161008a578063bab5691011610059578063bab56910146102af578063bb6fc950146102f1578063c24a0f8b1461030d578063fd1d5ea914610338576100e8565b8063748807ab1461020757806384bf66ac14610232578063965720af1461025b578063b92586c214610286576100e8565b806312065fe0116100c657806312065fe01461015f5780632c2ab5ea1461018a5780634570078f146101b5578063744bc369146101de576100e8565b8063054f84ed146100ed57806306a4e7cb146101095780630b97bc8614610134575b600080fd5b6101076004803603810190610102919061163d565b610361565b005b34801561011557600080fd5b5061011e6105cc565b60405161012b91906117f8565b60405180910390f35b34801561014057600080fd5b506101496105f2565b6040516101569190611903565b60405180910390f35b34801561016b57600080fd5b506101746105f8565b6040516101819190611903565b60405180910390f35b34801561019657600080fd5b5061019f610600565b6040516101ac91906117dd565b60405180910390f35b3480156101c157600080fd5b506101dc60048036038101906101d79190611666565b610626565b005b3480156101ea57600080fd5b5061020560048036038101906102009190611721565b610886565b005b34801561021357600080fd5b5061021c6109cb565b6040516102299190611813565b60405180910390f35b34801561023e57600080fd5b50610259600480360381019061025491906116a2565b6109de565b005b34801561026757600080fd5b50610270610c97565b60405161027d919061182e565b60405180910390f35b34801561029257600080fd5b506102ad60048036038101906102a89190611666565b610c9d565b005b3480156102bb57600080fd5b506102d660048036038101906102d1919061163d565b610efe565b6040516102e896959493929190611894565b60405180910390f35b61030b6004803603810190610306919061163d565b611057565b005b34801561031957600080fd5b50610322611333565b60405161032f9190611903565b60405180910390f35b34801561034457600080fd5b5061035f600480360381019061035a9190611721565b611339565b005b600180600281111561039c577f4e487b7100000000000000000000000000000000000000000000000000000000600052602160045260246000fd5b600260149054906101000a900460ff1660028111156103e4577f4e487b7100000000000000000000000000000000000000000000000000000000600052602160045260246000fd5b146103ee57600080fd5b8160006001600054610400919061199b565b82131580156104a15750806004811115610443577f4e487b7100000000000000000000000000000000000000000000000000000000600052602160045260246000fd5b6005600084815260200190815260200160002060050160009054906101000a900460ff16600481111561049f577f4e487b7100000000000000000000000000000000000000000000000000000000600052602160045260246000fd5b145b6104aa57600080fd5b8334806005600084815260200190815260200160002060020154146104ce57600080fd5b600260009054906101000a900473ffffffffffffffffffffffffffffffffffffffff1673ffffffffffffffffffffffffffffffffffffffff163373ffffffffffffffffffffffffffffffffffffffff161461052857600080fd5b60016005600088815260200190815260200160002060050160006101000a81548160ff02191690836004811115610588577f4e487b7100000000000000000000000000000000000000000000000000000000600052602160045260246000fd5b02179055507fd58e7b4972479e30bd65e34280dcda90802a617a803cb4b39764a2a30d3a8eae866040516105bc919061182e565b60405180910390a1505050505050565b600160009054906101000a900473ffffffffffffffffffffffffffffffffffffffff1681565b60035481565b600047905090565b600260009054906101000a900473ffffffffffffffffffffffffffffffffffffffff1681565b6001806002811115610661577f4e487b7100000000000000000000000000000000000000000000000000000000600052602160045260246000fd5b600260149054906101000a900460ff1660028111156106a9577f4e487b7100000000000000000000000000000000000000000000000000000000600052602160045260246000fd5b146106b357600080fd5b826001806000546106c4919061199b565b82131580156107655750806004811115610707577f4e487b7100000000000000000000000000000000000000000000000000000000600052602160045260246000fd5b6005600084815260200190815260200160002060050160009054906101000a900460ff166004811115610763577f4e487b7100000000000000000000000000000000000000000000000000000000600052602160045260246000fd5b145b61076e57600080fd5b600160009054906101000a900473ffffffffffffffffffffffffffffffffffffffff1673ffffffffffffffffffffffffffffffffffffffff163373ffffffffffffffffffffffffffffffffffffffff16146107c857600080fd5b60026005600087815260200190815260200160002060050160006101000a81548160ff02191690836004811115610828577f4e487b7100000000000000000000000000000000000000000000000000000000600052602160045260246000fd5b02179055508360056000878152602001908152602001600020600301819055507fde2dc33fbe2a5b6bf5e0ed721d44dc14441c4eef2cf4975ce14fd7bc0549489c85604051610877919061182e565b60405180910390a15050505050565b600260009054906101000a900473ffffffffffffffffffffffffffffffffffffffff1673ffffffffffffffffffffffffffffffffffffffff163373ffffffffffffffffffffffffffffffffffffffff16148061092f5750600160009054906101000a900473ffffffffffffffffffffffffffffffffffffffff1673ffffffffffffffffffffffffffffffffffffffff163373ffffffffffffffffffffffffffffffffffffffff16145b61093857600080fd5b6000471461094557600080fd5b60028060146101000a81548160ff02191690836002811115610990577f4e487b7100000000000000000000000000000000000000000000000000000000600052602160045260246000fd5b0217905550806004819055507fbef1ef6470add1875c12e547d844894de0608f7d47527676863b44153090bfe260405160405180910390a150565b600260149054906101000a900460ff1681565b6000806002811115610a19577f4e487b7100000000000000000000000000000000000000000000000000000000600052602160045260246000fd5b600260149054906101000a900460ff166002811115610a61577f4e487b7100000000000000000000000000000000000000000000000000000000600052602160045260246000fd5b14610a6b57600080fd5b600160009054906101000a900473ffffffffffffffffffffffffffffffffffffffff1673ffffffffffffffffffffffffffffffffffffffff163373ffffffffffffffffffffffffffffffffffffffff1614610ac557600080fd5b610acd61149a565b84816000018190525083816020018190525060008160a001906004811115610b1e577f4e487b7100000000000000000000000000000000000000000000000000000000600052602160045260246000fd5b90816004811115610b58577f4e487b7100000000000000000000000000000000000000000000000000000000600052602160045260246000fd5b8152505082816040018181525050600081606001818152505060008160800181815250508060056000805481526020019081526020016000206000820151816000019080519060200190610bad929190611508565b506020820151816001019080519060200190610bca929190611508565b5060408201518160020155606082015181600301556080820151816004015560a08201518160050160006101000a81548160ff02191690836004811115610c3a577f4e487b7100000000000000000000000000000000000000000000000000000000600052602160045260246000fd5b0217905550905050600080815480929190610c5490611b45565b91905055507ff29fdea51f7ec4cf45bbb7eb61e67fa64cf90101b5ea7415c5b02b69bac9c59485604051610c889190611872565b60405180910390a15050505050565b60005481565b6001806002811115610cd8577f4e487b7100000000000000000000000000000000000000000000000000000000600052602160045260246000fd5b600260149054906101000a900460ff166002811115610d20577f4e487b7100000000000000000000000000000000000000000000000000000000600052602160045260246000fd5b14610d2a57600080fd5b8260026001600054610d3c919061199b565b8213158015610ddd5750806004811115610d7f577f4e487b7100000000000000000000000000000000000000000000000000000000600052602160045260246000fd5b6005600084815260200190815260200160002060050160009054906101000a900460ff166004811115610ddb577f4e487b7100000000000000000000000000000000000000000000000000000000600052602160045260246000fd5b145b610de657600080fd5b600260009054906101000a900473ffffffffffffffffffffffffffffffffffffffff1673ffffffffffffffffffffffffffffffffffffffff163373ffffffffffffffffffffffffffffffffffffffff1614610e4057600080fd5b60036005600087815260200190815260200160002060050160006101000a81548160ff02191690836004811115610ea0577f4e487b7100000000000000000000000000000000000000000000000000000000600052602160045260246000fd5b02179055508360056000878152602001908152602001600020600401819055507f38f72d6c98702d265aec82b55e4b637d84fa97622b2244cd84dca2f171a0cefc85604051610eef919061182e565b60405180910390a15050505050565b6005602052806000526040600020600091509050806000018054610f2190611b13565b80601f0160208091040260200160405190810160405280929190818152602001828054610f4d90611b13565b8015610f9a5780601f10610f6f57610100808354040283529160200191610f9a565b820191906000526020600020905b815481529060010190602001808311610f7d57829003601f168201915b505050505090806001018054610faf90611b13565b80601f0160208091040260200160405190810160405280929190818152602001828054610fdb90611b13565b80156110285780601f10610ffd57610100808354040283529160200191611028565b820191906000526020600020905b81548152906001019060200180831161100b57829003601f168201915b5050505050908060020154908060030154908060040154908060050160009054906101000a900460ff16905086565b6001806002811115611092577f4e487b7100000000000000000000000000000000000000000000000000000000600052602160045260246000fd5b600260149054906101000a900460ff1660028111156110da577f4e487b7100000000000000000000000000000000000000000000000000000000600052602160045260246000fd5b146110e457600080fd5b81600360016000546110f6919061199b565b82131580156111975750806004811115611139577f4e487b7100000000000000000000000000000000000000000000000000000000600052602160045260246000fd5b6005600084815260200190815260200160002060050160009054906101000a900460ff166004811115611195577f4e487b7100000000000000000000000000000000000000000000000000000000600052602160045260246000fd5b145b6111a057600080fd5b600160009054906101000a900473ffffffffffffffffffffffffffffffffffffffff1673ffffffffffffffffffffffffffffffffffffffff163373ffffffffffffffffffffffffffffffffffffffff16146111fa57600080fd5b600160009054906101000a900473ffffffffffffffffffffffffffffffffffffffff1673ffffffffffffffffffffffffffffffffffffffff166108fc60056000878152602001908152602001600020600201549081150290604051600060405180830381858888f19350505050158015611278573d6000803e3d6000fd5b5060046005600086815260200190815260200160002060050160006101000a81548160ff021916908360048111156112d9577f4e487b7100000000000000000000000000000000000000000000000000000000600052602160045260246000fd5b02179055507fd73e163332c47993ba97b46887362ea1f01120cbc609242b41762901217bfd5d846005600087815260200190815260200160002060020154604051611325929190611849565b60405180910390a150505050565b60045481565b6000806002811115611374577f4e487b7100000000000000000000000000000000000000000000000000000000600052602160045260246000fd5b600260149054906101000a900460ff1660028111156113bc577f4e487b7100000000000000000000000000000000000000000000000000000000600052602160045260246000fd5b146113c657600080fd5b33600260006101000a81548173ffffffffffffffffffffffffffffffffffffffff021916908373ffffffffffffffffffffffffffffffffffffffff1602179055506001600260146101000a81548160ff02191690836002811115611453577f4e487b7100000000000000000000000000000000000000000000000000000000600052602160045260246000fd5b0217905550816003819055507f01bc39c23d192137df337abb0c6fe3f63a86ead52f73452ca64136a5dfd7ff433360405161148e91906117dd565b60405180910390a15050565b6040518060c00160405280606081526020016060815260200160008152602001600081526020016000815260200160006004811115611502577f4e487b7100000000000000000000000000000000000000000000000000000000600052602160045260246000fd5b81525090565b82805461151490611b13565b90600052602060002090601f016020900481019282611536576000855561157d565b82601f1061154f57805160ff191683800117855561157d565b8280016001018555821561157d579182015b8281111561157c578251825591602001919060010190611561565b5b50905061158a919061158e565b5090565b5b808211156115a757600081600090555060010161158f565b5090565b60006115be6115b98461194f565b61191e565b9050828152602081018484840111156115d657600080fd5b6115e1848285611ad1565b509392505050565b6000813590506115f881611c83565b92915050565b600082601f83011261160f57600080fd5b813561161f8482602086016115ab565b91505092915050565b60008135905061163781611c9a565b92915050565b60006020828403121561164f57600080fd5b600061165d848285016115e9565b91505092915050565b6000806040838503121561167957600080fd5b6000611687858286016115e9565b925050602061169885828601611628565b9150509250929050565b6000806000606084860312156116b757600080fd5b600084013567ffffffffffffffff8111156116d157600080fd5b6116dd868287016115fe565b935050602084013567ffffffffffffffff8111156116fa57600080fd5b611706868287016115fe565b925050604061171786828701611628565b9150509250925092565b60006020828403121561173357600080fd5b600061174184828501611628565b91505092915050565b61175381611a41565b82525050565b61176281611a2f565b82525050565b61177181611aad565b82525050565b61178081611abf565b82525050565b61178f81611a79565b82525050565b60006117a08261197f565b6117aa818561198a565b93506117ba818560208601611ae0565b6117c381611c4a565b840191505092915050565b6117d781611aa3565b82525050565b60006020820190506117f26000830184611759565b92915050565b600060208201905061180d600083018461174a565b92915050565b60006020820190506118286000830184611768565b92915050565b60006020820190506118436000830184611786565b92915050565b600060408201905061185e6000830185611786565b61186b60208301846117ce565b9392505050565b6000602082019050818103600083015261188c8184611795565b905092915050565b600060c08201905081810360008301526118ae8189611795565b905081810360208301526118c28188611795565b90506118d160408301876117ce565b6118de60608301866117ce565b6118eb60808301856117ce565b6118f860a0830184611777565b979650505050505050565b600060208201905061191860008301846117ce565b92915050565b6000604051905081810181811067ffffffffffffffff8211171561194557611944611c1b565b5b8060405250919050565b600067ffffffffffffffff82111561196a57611969611c1b565b5b601f19601f8301169050602081019050919050565b600081519050919050565b600082825260208201905092915050565b60006119a682611a79565b91506119b183611a79565b9250827f8000000000000000000000000000000000000000000000000000000000000000018212600084121516156119ec576119eb611b8e565b5b827f7fffffffffffffffffffffffffffffffffffffffffffffffffffffffffffffff018213600084121615611a2457611a23611b8e565b5b828203905092915050565b6000611a3a82611a83565b9050919050565b6000611a4c82611a83565b9050919050565b6000819050611a6182611c5b565b919050565b6000819050611a7482611c6f565b919050565b6000819050919050565b600073ffffffffffffffffffffffffffffffffffffffff82169050919050565b6000819050919050565b6000611ab882611a53565b9050919050565b6000611aca82611a66565b9050919050565b82818337600083830152505050565b60005b83811015611afe578082015181840152602081019050611ae3565b83811115611b0d576000848401525b50505050565b60006002820490506001821680611b2b57607f821691505b60208210811415611b3f57611b3e611bec565b5b50919050565b6000611b5082611a79565b91507f7fffffffffffffffffffffffffffffffffffffffffffffffffffffffffffffff821415611b8357611b82611b8e565b5b600182019050919050565b7f4e487b7100000000000000000000000000000000000000000000000000000000600052601160045260246000fd5b7f4e487b7100000000000000000000000000000000000000000000000000000000600052602160045260246000fd5b7f4e487b7100000000000000000000000000000000000000000000000000000000600052602260045260246000fd5b7f4e487b7100000000000000000000000000000000000000000000000000000000600052604160045260246000fd5b6000601f19601f8301169050919050565b60038110611c6c57611c6b611bbd565b5b50565b60058110611c8057611c7f611bbd565b5b50565b611c8c81611a79565b8114611c9757600080fd5b50565b611ca381611aa3565b8114611cae57600080fd5b5056fea26469706673582212204be79c3834e160aa82e89b769c728c8e5ecbe72f4f7a35d6ee7d3a1648f6331064736f6c63430008000033",
  "immutableReferences": {},
  "source": "//SPDX-License-Identifier: MIT\r\n \r\npragma solidity ^0.8.0;\r\n\r\ncontract freelancer{\r\n    \r\n    enum ScheduleState {planned, funded, started, approved, released}\r\n    enum ProjectState {initiated, accepted, closed}\r\n    \r\n    struct schedule{\r\n        string shortCode;\r\n        string description;\r\n        uint256 value;\r\n        uint256 startDate;\r\n        uint256 endDate;\r\n        ScheduleState scheduleState;\r\n    }  \r\n  \r\n    int256 public totalSchedules = 0;\r\n    address payable public freelancerAddress;\r\n    address public clientAddress;\r\n    ProjectState public projectState;\r\n    uint256 public startDate;\r\n    uint256 public endDate;\r\n    \r\n    mapping(int256 => schedule) public scheduleRegister;\r\n  \r\n\tmodifier condition(bool _condition) {\r\n\t\trequire(_condition);\r\n\t\t_;\r\n\t}\r\n\r\n\tmodifier onlyFreelancer() {\r\n\t\trequire(msg.sender == freelancerAddress);\r\n\t\t_;\r\n\t}\r\n\r\n\tmodifier onlyClient() {\r\n\t\trequire(msg.sender == clientAddress);\r\n\t\t_;\r\n\t}\r\n\t\r\n\tmodifier bothClientFreelancer(){\r\n\t\trequire(msg.sender == clientAddress || msg.sender == freelancerAddress);\r\n\t\t_;\t    \r\n\t}\r\n\r\n\tmodifier inProjectState(ProjectState _state) {\r\n\t\trequire(projectState == _state);\r\n\t\t_;\r\n\t}\r\n\r\n    modifier inScheduleState(int256 _scheduleID, ScheduleState _state){\r\n        require((_scheduleID <= totalSchedules - 1) && scheduleRegister[_scheduleID].scheduleState == _state);\r\n        _;\r\n    }\r\n\r\n    modifier ampleFunding(int256 _scheduleID, uint256 _funding){\r\n        require(scheduleRegister[_scheduleID].value == _funding);\r\n        _;\r\n    }\r\n\r\n    modifier noMoreFunds(){\r\n        require(address(this).balance == 0);\r\n        _;\r\n    }\r\n\r\n    event scheduleAdded(string shortCode);\r\n    event projectAccepted(address clientAddress);\r\n    event taskFunded(int256 scheduleID);\r\n    event taskStarted(int256 scheduleID);\r\n    event taskApproved(int256 scheduleID);\r\n    event fundsReleased(int256 scheduleID, uint256 valueReleased);\r\n    event projectEnded();\r\n    \r\n    constructor()\r\n    {\r\n        freelancerAddress = payable(msg.sender);\r\n        projectState = ProjectState.initiated;\r\n    }\r\n    \r\n    function addSchedule(string memory _shortCode, string memory _description, uint256 _value)\r\n        public\r\n        inProjectState(ProjectState.initiated)\r\n        onlyFreelancer\r\n    {\r\n        schedule memory s;\r\n        s.shortCode = _shortCode;\r\n        s.description = _description;\r\n        s.scheduleState = ScheduleState.planned;\r\n        s.value = _value;\r\n        s.startDate = 0;\r\n        s.endDate = 0;\r\n        scheduleRegister[totalSchedules] = s;\r\n        totalSchedules++;\r\n        emit scheduleAdded(_shortCode);\r\n    }\r\n    \r\n    function acceptProject(uint256 _startDate)\r\n        public\r\n        inProjectState(ProjectState.initiated)\r\n    {\r\n        clientAddress = msg.sender;\r\n        projectState = ProjectState.accepted;\r\n        startDate = _startDate;\r\n        emit projectAccepted(msg.sender);\r\n    }\r\n    \r\n    function fundTask(int256 _scheduleID)\r\n        public\r\n        payable\r\n        inProjectState(ProjectState.accepted)\r\n        inScheduleState(_scheduleID, ScheduleState.planned)\r\n        ampleFunding(_scheduleID, msg.value)\r\n        onlyClient\r\n    {\r\n        scheduleRegister[_scheduleID].scheduleState = ScheduleState.funded;\r\n        emit taskFunded(_scheduleID);\r\n    }\r\n    \r\n    function startTask(int256 _scheduleID, uint256 _startDate)\r\n        public\r\n        inProjectState(ProjectState.accepted)\r\n        inScheduleState(_scheduleID, ScheduleState.funded)\r\n        onlyFreelancer\r\n    {\r\n        scheduleRegister[_scheduleID].scheduleState = ScheduleState.started;\r\n        scheduleRegister[_scheduleID].startDate = _startDate;\r\n        emit taskStarted(_scheduleID);\r\n    }\r\n\r\n    function approveTask(int256 _scheduleID, uint256 _endDate)\r\n        public\r\n        inProjectState(ProjectState.accepted)\r\n        inScheduleState(_scheduleID, ScheduleState.started)\r\n        onlyClient\r\n    {\r\n        scheduleRegister[_scheduleID].scheduleState = ScheduleState.approved;\r\n        scheduleRegister[_scheduleID].endDate = _endDate;\r\n        emit taskApproved(_scheduleID);\r\n    }\r\n    \r\n    function releaseFunds(int256 _scheduleID)\r\n        public\r\n        payable\r\n        inProjectState(ProjectState.accepted)\r\n        inScheduleState(_scheduleID, ScheduleState.approved)\r\n        onlyFreelancer\r\n    {\r\n        freelancerAddress.transfer(scheduleRegister[_scheduleID].value);\r\n        scheduleRegister[_scheduleID].scheduleState = ScheduleState.released;\r\n        emit fundsReleased(_scheduleID, scheduleRegister[_scheduleID].value);\r\n    }\r\n    \r\n    function endProject(uint256 _endDate)\r\n        public\r\n        bothClientFreelancer\r\n        noMoreFunds\r\n    {\r\n        projectState = ProjectState.closed;\r\n        endDate = _endDate;\r\n        emit projectEnded();\r\n    }\r\n    \r\n    function getBalance()\r\n        public\r\n        view\r\n        returns (uint256 balance)\r\n    {\r\n        return address(this).balance;\r\n    }\r\n} ",
  "sourcePath": "H:\\BLOCKCHAIN\\Freelancer\\contracts\\Freelancer.sol",
  "compiler": {
    "name": "solc",
    "version": "0.8.0+commit.c7dfd78e.Emscripten.clang"
  },
  "schemaVersion": "3.4.6",
  "updatedAt": "2022-03-24T10:15:11.086Z",
  "networkType": "ethereum",
  "devdoc": {
    "kind": "dev",
    "methods": {},
    "version": 1
  },
  "userdoc": {
    "kind": "user",
    "methods": {},
    "version": 1
  }
}